{
  "contractName": "BRLShopp",
  "abi": [
    {
      "inputs": [],
      "stateMutability": "nonpayable",
      "type": "constructor"
    },
    {
      "anonymous": false,
      "inputs": [
        {
          "indexed": true,
          "internalType": "address",
          "name": "owner",
          "type": "address"
        },
        {
          "indexed": true,
          "internalType": "address",
          "name": "spender",
          "type": "address"
        },
        {
          "indexed": false,
          "internalType": "uint256",
          "name": "value",
          "type": "uint256"
        }
      ],
      "name": "Approval",
      "type": "event"
    },
    {
      "anonymous": false,
      "inputs": [
        {
          "indexed": false,
          "internalType": "address",
          "name": "account",
          "type": "address"
        }
      ],
      "name": "Paused",
      "type": "event"
    },
    {
      "anonymous": false,
      "inputs": [
        {
          "indexed": true,
          "internalType": "bytes32",
          "name": "role",
          "type": "bytes32"
        },
        {
          "indexed": true,
          "internalType": "bytes32",
          "name": "previousAdminRole",
          "type": "bytes32"
        },
        {
          "indexed": true,
          "internalType": "bytes32",
          "name": "newAdminRole",
          "type": "bytes32"
        }
      ],
      "name": "RoleAdminChanged",
      "type": "event"
    },
    {
      "anonymous": false,
      "inputs": [
        {
          "indexed": true,
          "internalType": "bytes32",
          "name": "role",
          "type": "bytes32"
        },
        {
          "indexed": true,
          "internalType": "address",
          "name": "account",
          "type": "address"
        },
        {
          "indexed": true,
          "internalType": "address",
          "name": "sender",
          "type": "address"
        }
      ],
      "name": "RoleGranted",
      "type": "event"
    },
    {
      "anonymous": false,
      "inputs": [
        {
          "indexed": true,
          "internalType": "bytes32",
          "name": "role",
          "type": "bytes32"
        },
        {
          "indexed": true,
          "internalType": "address",
          "name": "account",
          "type": "address"
        },
        {
          "indexed": true,
          "internalType": "address",
          "name": "sender",
          "type": "address"
        }
      ],
      "name": "RoleRevoked",
      "type": "event"
    },
    {
      "anonymous": false,
      "inputs": [
        {
          "indexed": true,
          "internalType": "address",
          "name": "from",
          "type": "address"
        },
        {
          "indexed": true,
          "internalType": "address",
          "name": "to",
          "type": "address"
        },
        {
          "indexed": false,
          "internalType": "uint256",
          "name": "value",
          "type": "uint256"
        }
      ],
      "name": "Transfer",
      "type": "event"
    },
    {
      "anonymous": false,
      "inputs": [
        {
          "indexed": false,
          "internalType": "address",
          "name": "account",
          "type": "address"
        }
      ],
      "name": "Unpaused",
      "type": "event"
    },
    {
      "inputs": [],
      "name": "DEFAULT_ADMIN_ROLE",
      "outputs": [
        {
          "internalType": "bytes32",
          "name": "",
          "type": "bytes32"
        }
      ],
      "stateMutability": "view",
      "type": "function"
    },
    {
      "inputs": [],
      "name": "MINTER_ROLE",
      "outputs": [
        {
          "internalType": "bytes32",
          "name": "",
          "type": "bytes32"
        }
      ],
      "stateMutability": "view",
      "type": "function"
    },
    {
      "inputs": [],
      "name": "PAUSER_ROLE",
      "outputs": [
        {
          "internalType": "bytes32",
          "name": "",
          "type": "bytes32"
        }
      ],
      "stateMutability": "view",
      "type": "function"
    },
    {
      "inputs": [
        {
          "internalType": "address",
          "name": "owner",
          "type": "address"
        },
        {
          "internalType": "address",
          "name": "spender",
          "type": "address"
        }
      ],
      "name": "allowance",
      "outputs": [
        {
          "internalType": "uint256",
          "name": "",
          "type": "uint256"
        }
      ],
      "stateMutability": "view",
      "type": "function"
    },
    {
      "inputs": [
        {
          "internalType": "address",
          "name": "spender",
          "type": "address"
        },
        {
          "internalType": "uint256",
          "name": "amount",
          "type": "uint256"
        }
      ],
      "name": "approve",
      "outputs": [
        {
          "internalType": "bool",
          "name": "",
          "type": "bool"
        }
      ],
      "stateMutability": "nonpayable",
      "type": "function"
    },
    {
      "inputs": [
        {
          "internalType": "address",
          "name": "account",
          "type": "address"
        }
      ],
      "name": "balanceOf",
      "outputs": [
        {
          "internalType": "uint256",
          "name": "",
          "type": "uint256"
        }
      ],
      "stateMutability": "view",
      "type": "function"
    },
    {
      "inputs": [
        {
          "internalType": "uint256",
          "name": "amount",
          "type": "uint256"
        }
      ],
      "name": "burn",
      "outputs": [],
      "stateMutability": "nonpayable",
      "type": "function"
    },
    {
      "inputs": [
        {
          "internalType": "address",
          "name": "account",
          "type": "address"
        },
        {
          "internalType": "uint256",
          "name": "amount",
          "type": "uint256"
        }
      ],
      "name": "burnFrom",
      "outputs": [],
      "stateMutability": "nonpayable",
      "type": "function"
    },
    {
      "inputs": [
        {
          "internalType": "address",
          "name": "spender",
          "type": "address"
        },
        {
          "internalType": "uint256",
          "name": "subtractedValue",
          "type": "uint256"
        }
      ],
      "name": "decreaseAllowance",
      "outputs": [
        {
          "internalType": "bool",
          "name": "",
          "type": "bool"
        }
      ],
      "stateMutability": "nonpayable",
      "type": "function"
    },
    {
      "inputs": [
        {
          "internalType": "bytes32",
          "name": "role",
          "type": "bytes32"
        }
      ],
      "name": "getRoleAdmin",
      "outputs": [
        {
          "internalType": "bytes32",
          "name": "",
          "type": "bytes32"
        }
      ],
      "stateMutability": "view",
      "type": "function"
    },
    {
      "inputs": [
        {
          "internalType": "bytes32",
          "name": "role",
          "type": "bytes32"
        },
        {
          "internalType": "uint256",
          "name": "index",
          "type": "uint256"
        }
      ],
      "name": "getRoleMember",
      "outputs": [
        {
          "internalType": "address",
          "name": "",
          "type": "address"
        }
      ],
      "stateMutability": "view",
      "type": "function"
    },
    {
      "inputs": [
        {
          "internalType": "bytes32",
          "name": "role",
          "type": "bytes32"
        }
      ],
      "name": "getRoleMemberCount",
      "outputs": [
        {
          "internalType": "uint256",
          "name": "",
          "type": "uint256"
        }
      ],
      "stateMutability": "view",
      "type": "function"
    },
    {
      "inputs": [
        {
          "internalType": "bytes32",
          "name": "role",
          "type": "bytes32"
        },
        {
          "internalType": "address",
          "name": "account",
          "type": "address"
        }
      ],
      "name": "grantRole",
      "outputs": [],
      "stateMutability": "nonpayable",
      "type": "function"
    },
    {
      "inputs": [
        {
          "internalType": "bytes32",
          "name": "role",
          "type": "bytes32"
        },
        {
          "internalType": "address",
          "name": "account",
          "type": "address"
        }
      ],
      "name": "hasRole",
      "outputs": [
        {
          "internalType": "bool",
          "name": "",
          "type": "bool"
        }
      ],
      "stateMutability": "view",
      "type": "function"
    },
    {
      "inputs": [
        {
          "internalType": "address",
          "name": "spender",
          "type": "address"
        },
        {
          "internalType": "uint256",
          "name": "addedValue",
          "type": "uint256"
        }
      ],
      "name": "increaseAllowance",
      "outputs": [
        {
          "internalType": "bool",
          "name": "",
          "type": "bool"
        }
      ],
      "stateMutability": "nonpayable",
      "type": "function"
    },
    {
      "inputs": [
        {
          "internalType": "address",
          "name": "to",
          "type": "address"
        },
        {
          "internalType": "uint256",
          "name": "amount",
          "type": "uint256"
        }
      ],
      "name": "mint",
      "outputs": [],
      "stateMutability": "nonpayable",
      "type": "function"
    },
    {
      "inputs": [],
      "name": "name",
      "outputs": [
        {
          "internalType": "string",
          "name": "",
          "type": "string"
        }
      ],
      "stateMutability": "view",
      "type": "function"
    },
    {
      "inputs": [],
      "name": "pause",
      "outputs": [],
      "stateMutability": "nonpayable",
      "type": "function"
    },
    {
      "inputs": [],
      "name": "paused",
      "outputs": [
        {
          "internalType": "bool",
          "name": "",
          "type": "bool"
        }
      ],
      "stateMutability": "view",
      "type": "function"
    },
    {
      "inputs": [
        {
          "internalType": "bytes32",
          "name": "role",
          "type": "bytes32"
        },
        {
          "internalType": "address",
          "name": "account",
          "type": "address"
        }
      ],
      "name": "renounceRole",
      "outputs": [],
      "stateMutability": "nonpayable",
      "type": "function"
    },
    {
      "inputs": [
        {
          "internalType": "bytes32",
          "name": "role",
          "type": "bytes32"
        },
        {
          "internalType": "address",
          "name": "account",
          "type": "address"
        }
      ],
      "name": "revokeRole",
      "outputs": [],
      "stateMutability": "nonpayable",
      "type": "function"
    },
    {
      "inputs": [
        {
          "internalType": "bytes4",
          "name": "interfaceId",
          "type": "bytes4"
        }
      ],
      "name": "supportsInterface",
      "outputs": [
        {
          "internalType": "bool",
          "name": "",
          "type": "bool"
        }
      ],
      "stateMutability": "view",
      "type": "function"
    },
    {
      "inputs": [],
      "name": "symbol",
      "outputs": [
        {
          "internalType": "string",
          "name": "",
          "type": "string"
        }
      ],
      "stateMutability": "view",
      "type": "function"
    },
    {
      "inputs": [],
      "name": "totalSupply",
      "outputs": [
        {
          "internalType": "uint256",
          "name": "",
          "type": "uint256"
        }
      ],
      "stateMutability": "view",
      "type": "function"
    },
    {
      "inputs": [
        {
          "internalType": "address",
          "name": "recipient",
          "type": "address"
        },
        {
          "internalType": "uint256",
          "name": "amount",
          "type": "uint256"
        }
      ],
      "name": "transfer",
      "outputs": [
        {
          "internalType": "bool",
          "name": "",
          "type": "bool"
        }
      ],
      "stateMutability": "nonpayable",
      "type": "function"
    },
    {
      "inputs": [
        {
          "internalType": "address",
          "name": "sender",
          "type": "address"
        },
        {
          "internalType": "address",
          "name": "recipient",
          "type": "address"
        },
        {
          "internalType": "uint256",
          "name": "amount",
          "type": "uint256"
        }
      ],
      "name": "transferFrom",
      "outputs": [
        {
          "internalType": "bool",
          "name": "",
          "type": "bool"
        }
      ],
      "stateMutability": "nonpayable",
      "type": "function"
    },
    {
      "inputs": [],
      "name": "unpause",
      "outputs": [],
      "stateMutability": "nonpayable",
      "type": "function"
    },
    {
      "inputs": [],
      "name": "decimals",
      "outputs": [
        {
          "internalType": "uint8",
          "name": "",
          "type": "uint8"
        }
      ],
      "stateMutability": "view",
      "type": "function"
    }
  ],
  "bytecode": "0x60806040523480156200001157600080fd5b506040518060400160405280600881526020017f42524c53686f70700000000000000000000000000000000000000000000000008152506040518060400160405280600881526020017f42524c53484f5050000000000000000000000000000000000000000000000000815250818181600590805190602001906200009892919062000413565b508060069080519060200190620000b192919062000413565b5050506000600760006101000a81548160ff021916908315150217905550620000f36000801b620000e76200017d60201b60201c565b6200018560201b60201c565b620001347f9f2df0fed2c77648de5860a4cc508cd0818c85b8b8a1ab4ceeef8d981c8956a6620001286200017d60201b60201c565b6200018560201b60201c565b620001757f65d7a28e3265b37a6474929f336521b332c1681b933f6cb9f3376673440d862a620001696200017d60201b60201c565b6200018560201b60201c565b505062000528565b600033905090565b6200019c8282620001cd60201b62000ee01760201c565b620001c88160016000858152602001908152602001600020620001e360201b62000eee1790919060201c565b505050565b620001df82826200021b60201b60201c565b5050565b600062000213836000018373ffffffffffffffffffffffffffffffffffffffff1660001b6200030c60201b60201c565b905092915050565b6200022d82826200038660201b60201c565b6200030857600160008084815260200190815260200160002060000160008373ffffffffffffffffffffffffffffffffffffffff1673ffffffffffffffffffffffffffffffffffffffff16815260200190815260200160002060006101000a81548160ff021916908315150217905550620002ad6200017d60201b60201c565b73ffffffffffffffffffffffffffffffffffffffff168173ffffffffffffffffffffffffffffffffffffffff16837f2f8788117e7eff1d82e926ec794901d17c78024a50270940304540a733656f0d60405160405180910390a45b5050565b6000620003208383620003f060201b60201c565b6200037b57826000018290806001815401808255809150506001900390600052602060002001600090919091909150558260000180549050836001016000848152602001908152602001600020819055506001905062000380565b600090505b92915050565b600080600084815260200190815260200160002060000160008373ffffffffffffffffffffffffffffffffffffffff1673ffffffffffffffffffffffffffffffffffffffff16815260200190815260200160002060009054906101000a900460ff16905092915050565b600080836001016000848152602001908152602001600020541415905092915050565b8280546200042190620004c3565b90600052602060002090601f01602090048101928262000445576000855562000491565b82601f106200046057805160ff191683800117855562000491565b8280016001018555821562000491579182015b828111156200049057825182559160200191906001019062000473565b5b509050620004a09190620004a4565b5090565b5b80821115620004bf576000816000905550600101620004a5565b5090565b60006002820490506001821680620004dc57607f821691505b60208210811415620004f357620004f2620004f9565b5b50919050565b7f4e487b7100000000000000000000000000000000000000000000000000000000600052602260045260246000fd5b61337c80620005386000396000f3fe608060405234801561001057600080fd5b50600436106101c45760003560e01c806370a08231116100f9578063a457c2d711610097578063d539139311610071578063d53913931461052d578063d547741f1461054b578063dd62ed3e14610567578063e63ab1e914610597576101c4565b8063a457c2d71461049d578063a9059cbb146104cd578063ca15c873146104fd576101c4565b80639010d07c116100d35780639010d07c1461040157806391d148541461043157806395d89b4114610461578063a217fddf1461047f576101c4565b806370a08231146103ab57806379cc6790146103db5780638456cb59146103f7576101c4565b8063313ce567116101665780633f4ba83a116101405780633f4ba83a1461034b57806340c10f191461035557806342966c68146103715780635c975abb1461038d576101c4565b8063313ce567146102e157806336568abe146102ff578063395093511461031b576101c4565b806318160ddd116101a257806318160ddd1461024757806323b872dd14610265578063248a9ca3146102955780632f2ff15d146102c5576101c4565b806301ffc9a7146101c957806306fdde03146101f9578063095ea7b314610217575b600080fd5b6101e360048036038101906101de91906122fc565b6105b5565b6040516101f0919061273f565b60405180910390f35b61020161062f565b60405161020e9190612775565b60405180910390f35b610231600480360381019061022c919061220f565b6106c1565b60405161023e919061273f565b60405180910390f35b61024f6106df565b60405161025c91906129f7565b60405180910390f35b61027f600480360381019061027a91906121bc565b6106e9565b60405161028c919061273f565b60405180910390f35b6102af60048036038101906102aa919061224f565b6107e1565b6040516102bc919061275a565b60405180910390f35b6102df60048036038101906102da919061227c565b610800565b005b6102e9610834565b6040516102f69190612a12565b60405180910390f35b6103196004803603810190610314919061227c565b61083d565b005b6103356004803603810190610330919061220f565b610871565b604051610342919061273f565b60405180910390f35b61035361091d565b005b61036f600480360381019061036a919061220f565b610997565b005b61038b60048036038101906103869190612329565b610a15565b005b610395610a29565b6040516103a2919061273f565b60405180910390f35b6103c560048036038101906103c0919061214f565b610a40565b6040516103d291906129f7565b60405180910390f35b6103f560048036038101906103f0919061220f565b610a89565b005b6103ff610b04565b005b61041b600480360381019061041691906122bc565b610b7e565b6040516104289190612724565b60405180910390f35b61044b6004803603810190610446919061227c565b610bad565b604051610458919061273f565b60405180910390f35b610469610c17565b6040516104769190612775565b60405180910390f35b610487610ca9565b604051610494919061275a565b60405180910390f35b6104b760048036038101906104b2919061220f565b610cb0565b6040516104c4919061273f565b60405180910390f35b6104e760048036038101906104e2919061220f565b610d9b565b6040516104f4919061273f565b60405180910390f35b6105176004803603810190610512919061224f565b610db9565b60405161052491906129f7565b60405180910390f35b610535610ddd565b604051610542919061275a565b60405180910390f35b6105656004803603810190610560919061227c565b610e01565b005b610581600480360381019061057c919061217c565b610e35565b60405161058e91906129f7565b60405180910390f35b61059f610ebc565b6040516105ac919061275a565b60405180910390f35b60007f5a05180f000000000000000000000000000000000000000000000000000000007bffffffffffffffffffffffffffffffffffffffffffffffffffffffff1916827bffffffffffffffffffffffffffffffffffffffffffffffffffffffff19161480610628575061062782610f1e565b5b9050919050565b60606005805461063e90612c20565b80601f016020809104026020016040519081016040528092919081815260200182805461066a90612c20565b80156106b75780601f1061068c576101008083540402835291602001916106b7565b820191906000526020600020905b81548152906001019060200180831161069a57829003601f168201915b5050505050905090565b60006106d56106ce610f98565b8484610fa0565b6001905092915050565b6000600454905090565b60006106f684848461116b565b6000600360008673ffffffffffffffffffffffffffffffffffffffff1673ffffffffffffffffffffffffffffffffffffffff1681526020019081526020016000206000610741610f98565b73ffffffffffffffffffffffffffffffffffffffff1673ffffffffffffffffffffffffffffffffffffffff168152602001908152602001600020549050828110156107c1576040517f08c379a00000000000000000000000000000000000000000000000000000000081526004016107b890612897565b60405180910390fd5b6107d5856107cd610f98565b858403610fa0565b60019150509392505050565b6000806000838152602001908152602001600020600101549050919050565b61080a82826113ef565b61082f8160016000858152602001908152602001600020610eee90919063ffffffff16565b505050565b60006002905090565b6108478282611418565b61086c816001600085815260200190815260200160002061149b90919063ffffffff16565b505050565b600061091361087e610f98565b84846003600061088c610f98565b73ffffffffffffffffffffffffffffffffffffffff1673ffffffffffffffffffffffffffffffffffffffff16815260200190815260200160002060008873ffffffffffffffffffffffffffffffffffffffff1673ffffffffffffffffffffffffffffffffffffffff1681526020019081526020016000205461090e9190612a54565b610fa0565b6001905092915050565b61094e7f65d7a28e3265b37a6474929f336521b332c1681b933f6cb9f3376673440d862a610949610f98565b610bad565b61098d576040517f08c379a000000000000000000000000000000000000000000000000000000000815260040161098490612817565b60405180910390fd5b6109956114cb565b565b6109c87f9f2df0fed2c77648de5860a4cc508cd0818c85b8b8a1ab4ceeef8d981c8956a66109c3610f98565b610bad565b610a07576040517f08c379a00000000000000000000000000000000000000000000000000000000081526004016109fe906128b7565b60405180910390fd5b610a11828261156d565b5050565b610a26610a20610f98565b826116ce565b50565b6000600760009054906101000a900460ff16905090565b6000600260008373ffffffffffffffffffffffffffffffffffffffff1673ffffffffffffffffffffffffffffffffffffffff168152602001908152602001600020549050919050565b6000610a9c83610a97610f98565b610e35565b905081811015610ae1576040517f08c379a0000000000000000000000000000000000000000000000000000000008152600401610ad8906128d7565b60405180910390fd5b610af583610aed610f98565b848403610fa0565b610aff83836116ce565b505050565b610b357f65d7a28e3265b37a6474929f336521b332c1681b933f6cb9f3376673440d862a610b30610f98565b610bad565b610b74576040517f08c379a0000000000000000000000000000000000000000000000000000000008152600401610b6b90612957565b60405180910390fd5b610b7c6118a7565b565b6000610ba5826001600086815260200190815260200160002061194a90919063ffffffff16565b905092915050565b600080600084815260200190815260200160002060000160008373ffffffffffffffffffffffffffffffffffffffff1673ffffffffffffffffffffffffffffffffffffffff16815260200190815260200160002060009054906101000a900460ff16905092915050565b606060068054610c2690612c20565b80601f0160208091040260200160405190810160405280929190818152602001828054610c5290612c20565b8015610c9f5780601f10610c7457610100808354040283529160200191610c9f565b820191906000526020600020905b815481529060010190602001808311610c8257829003601f168201915b5050505050905090565b6000801b81565b60008060036000610cbf610f98565b73ffffffffffffffffffffffffffffffffffffffff1673ffffffffffffffffffffffffffffffffffffffff16815260200190815260200160002060008573ffffffffffffffffffffffffffffffffffffffff1673ffffffffffffffffffffffffffffffffffffffff16815260200190815260200160002054905082811015610d7c576040517f08c379a0000000000000000000000000000000000000000000000000000000008152600401610d7390612977565b60405180910390fd5b610d90610d87610f98565b85858403610fa0565b600191505092915050565b6000610daf610da8610f98565b848461116b565b6001905092915050565b6000610dd660016000848152602001908152602001600020611964565b9050919050565b7f9f2df0fed2c77648de5860a4cc508cd0818c85b8b8a1ab4ceeef8d981c8956a681565b610e0b8282611979565b610e30816001600085815260200190815260200160002061149b90919063ffffffff16565b505050565b6000600360008473ffffffffffffffffffffffffffffffffffffffff1673ffffffffffffffffffffffffffffffffffffffff16815260200190815260200160002060008373ffffffffffffffffffffffffffffffffffffffff1673ffffffffffffffffffffffffffffffffffffffff16815260200190815260200160002054905092915050565b7f65d7a28e3265b37a6474929f336521b332c1681b933f6cb9f3376673440d862a81565b610eea82826119a2565b5050565b6000610f16836000018373ffffffffffffffffffffffffffffffffffffffff1660001b611a82565b905092915050565b60007f7965db0b000000000000000000000000000000000000000000000000000000007bffffffffffffffffffffffffffffffffffffffffffffffffffffffff1916827bffffffffffffffffffffffffffffffffffffffffffffffffffffffff19161480610f915750610f9082611af2565b5b9050919050565b600033905090565b600073ffffffffffffffffffffffffffffffffffffffff168373ffffffffffffffffffffffffffffffffffffffff161415611010576040517f08c379a000000000000000000000000000000000000000000000000000000000815260040161100790612937565b60405180910390fd5b600073ffffffffffffffffffffffffffffffffffffffff168273ffffffffffffffffffffffffffffffffffffffff161415611080576040517f08c379a000000000000000000000000000000000000000000000000000000000815260040161107790612837565b60405180910390fd5b80600360008573ffffffffffffffffffffffffffffffffffffffff1673ffffffffffffffffffffffffffffffffffffffff16815260200190815260200160002060008473ffffffffffffffffffffffffffffffffffffffff1673ffffffffffffffffffffffffffffffffffffffff168152602001908152602001600020819055508173ffffffffffffffffffffffffffffffffffffffff168373ffffffffffffffffffffffffffffffffffffffff167f8c5be1e5ebec7d5bd14f71427d1e84f3dd0314c0f7b2291e5b200ac8c7c3b9258360405161115e91906129f7565b60405180910390a3505050565b600073ffffffffffffffffffffffffffffffffffffffff168373ffffffffffffffffffffffffffffffffffffffff1614156111db576040517f08c379a00000000000000000000000000000000000000000000000000000000081526004016111d290612917565b60405180910390fd5b600073ffffffffffffffffffffffffffffffffffffffff168273ffffffffffffffffffffffffffffffffffffffff16141561124b576040517f08c379a0000000000000000000000000000000000000000000000000000000008152600401611242906127b7565b60405180910390fd5b611256838383611b5c565b6000600260008573ffffffffffffffffffffffffffffffffffffffff1673ffffffffffffffffffffffffffffffffffffffff168152602001908152602001600020549050818110156112dd576040517f08c379a00000000000000000000000000000000000000000000000000000000081526004016112d490612857565b60405180910390fd5b818103600260008673ffffffffffffffffffffffffffffffffffffffff1673ffffffffffffffffffffffffffffffffffffffff1681526020019081526020016000208190555081600260008573ffffffffffffffffffffffffffffffffffffffff1673ffffffffffffffffffffffffffffffffffffffff16815260200190815260200160002060008282546113729190612a54565b925050819055508273ffffffffffffffffffffffffffffffffffffffff168473ffffffffffffffffffffffffffffffffffffffff167fddf252ad1be2c89b69c2b068fc378daa952ba7f163c4a11628f55a4df523b3ef846040516113d691906129f7565b60405180910390a36113e9848484611b6c565b50505050565b6113f8826107e1565b61140981611404610f98565b611b71565b61141383836119a2565b505050565b611420610f98565b73ffffffffffffffffffffffffffffffffffffffff168173ffffffffffffffffffffffffffffffffffffffff161461148d576040517f08c379a000000000000000000000000000000000000000000000000000000000815260040161148490612997565b60405180910390fd5b6114978282611c0e565b5050565b60006114c3836000018373ffffffffffffffffffffffffffffffffffffffff1660001b611cef565b905092915050565b6114d3610a29565b611512576040517f08c379a0000000000000000000000000000000000000000000000000000000008152600401611509906127d7565b60405180910390fd5b6000600760006101000a81548160ff0219169083151502179055507f5db9ee0a495bf2e6ff9c91a7834c1ba4fdd244a5e8aa4e537bd38aeae4b073aa611556610f98565b6040516115639190612724565b60405180910390a1565b600073ffffffffffffffffffffffffffffffffffffffff168273ffffffffffffffffffffffffffffffffffffffff1614156115dd576040517f08c379a00000000000000000000000000000000000000000000000000000000081526004016115d4906129b7565b60405180910390fd5b6115e960008383611b5c565b80600460008282546115fb9190612a54565b9250508190555080600260008473ffffffffffffffffffffffffffffffffffffffff1673ffffffffffffffffffffffffffffffffffffffff16815260200190815260200160002060008282546116519190612a54565b925050819055508173ffffffffffffffffffffffffffffffffffffffff16600073ffffffffffffffffffffffffffffffffffffffff167fddf252ad1be2c89b69c2b068fc378daa952ba7f163c4a11628f55a4df523b3ef836040516116b691906129f7565b60405180910390a36116ca60008383611b6c565b5050565b600073ffffffffffffffffffffffffffffffffffffffff168273ffffffffffffffffffffffffffffffffffffffff16141561173e576040517f08c379a0000000000000000000000000000000000000000000000000000000008152600401611735906128f7565b60405180910390fd5b61174a82600083611b5c565b6000600260008473ffffffffffffffffffffffffffffffffffffffff1673ffffffffffffffffffffffffffffffffffffffff168152602001908152602001600020549050818110156117d1576040517f08c379a00000000000000000000000000000000000000000000000000000000081526004016117c8906127f7565b60405180910390fd5b818103600260008573ffffffffffffffffffffffffffffffffffffffff1673ffffffffffffffffffffffffffffffffffffffff1681526020019081526020016000208190555081600460008282546118299190612b04565b92505081905550600073ffffffffffffffffffffffffffffffffffffffff168373ffffffffffffffffffffffffffffffffffffffff167fddf252ad1be2c89b69c2b068fc378daa952ba7f163c4a11628f55a4df523b3ef8460405161188e91906129f7565b60405180910390a36118a283600084611b6c565b505050565b6118af610a29565b156118ef576040517f08c379a00000000000000000000000000000000000000000000000000000000081526004016118e690612877565b60405180910390fd5b6001600760006101000a81548160ff0219169083151502179055507f62e78cea01bee320cd4e420270b5ea74000d11b0c9f74754ebdbfc544b05a258611933610f98565b6040516119409190612724565b60405180910390a1565b60006119598360000183611e03565b60001c905092915050565b600061197282600001611e2e565b9050919050565b611982826107e1565b6119938161198e610f98565b611b71565b61199d8383611c0e565b505050565b6119ac8282610bad565b611a7e57600160008084815260200190815260200160002060000160008373ffffffffffffffffffffffffffffffffffffffff1673ffffffffffffffffffffffffffffffffffffffff16815260200190815260200160002060006101000a81548160ff021916908315150217905550611a23610f98565b73ffffffffffffffffffffffffffffffffffffffff168173ffffffffffffffffffffffffffffffffffffffff16837f2f8788117e7eff1d82e926ec794901d17c78024a50270940304540a733656f0d60405160405180910390a45b5050565b6000611a8e8383611e3f565b611ae7578260000182908060018154018082558091505060019003906000526020600020016000909190919091505582600001805490508360010160008481526020019081526020016000208190555060019050611aec565b600090505b92915050565b60007f01ffc9a7000000000000000000000000000000000000000000000000000000007bffffffffffffffffffffffffffffffffffffffffffffffffffffffff1916827bffffffffffffffffffffffffffffffffffffffffffffffffffffffff1916149050919050565b611b67838383611e62565b505050565b505050565b611b7b8282610bad565b611c0a57611ba08173ffffffffffffffffffffffffffffffffffffffff166014611eba565b611bae8360001c6020611eba565b604051602001611bbf9291906126ea565b6040516020818303038152906040526040517f08c379a0000000000000000000000000000000000000000000000000000000008152600401611c019190612775565b60405180910390fd5b5050565b611c188282610bad565b15611ceb57600080600084815260200190815260200160002060000160008373ffffffffffffffffffffffffffffffffffffffff1673ffffffffffffffffffffffffffffffffffffffff16815260200190815260200160002060006101000a81548160ff021916908315150217905550611c90610f98565b73ffffffffffffffffffffffffffffffffffffffff168173ffffffffffffffffffffffffffffffffffffffff16837ff6391f5c32d9c69d2a47ea670b442974b53935d1edc7fd64eb21e047a839171b60405160405180910390a45b5050565b60008083600101600084815260200190815260200160002054905060008114611df7576000600182611d219190612b04565b9050600060018660000180549050611d399190612b04565b9050818114611da8576000866000018281548110611d5a57611d59612cdf565b5b9060005260206000200154905080876000018481548110611d7e57611d7d612cdf565b5b90600052602060002001819055508387600101600083815260200190815260200160002081905550505b85600001805480611dbc57611dbb612cb0565b5b600190038181906000526020600020016000905590558560010160008681526020019081526020016000206000905560019350505050611dfd565b60009150505b92915050565b6000826000018281548110611e1b57611e1a612cdf565b5b9060005260206000200154905092915050565b600081600001805490509050919050565b600080836001016000848152602001908152602001600020541415905092915050565b611e6d8383836120f6565b611e75610a29565b15611eb5576040517f08c379a0000000000000000000000000000000000000000000000000000000008152600401611eac906129d7565b60405180910390fd5b505050565b606060006002836002611ecd9190612aaa565b611ed79190612a54565b67ffffffffffffffff811115611ef057611eef612d0e565b5b6040519080825280601f01601f191660200182016040528015611f225781602001600182028036833780820191505090505b5090507f300000000000000000000000000000000000000000000000000000000000000081600081518110611f5a57611f59612cdf565b5b60200101907effffffffffffffffffffffffffffffffffffffffffffffffffffffffffffff1916908160001a9053507f780000000000000000000000000000000000000000000000000000000000000081600181518110611fbe57611fbd612cdf565b5b60200101907effffffffffffffffffffffffffffffffffffffffffffffffffffffffffffff1916908160001a90535060006001846002611ffe9190612aaa565b6120089190612a54565b90505b60018111156120a8577f3031323334353637383961626364656600000000000000000000000000000000600f86166010811061204a57612049612cdf565b5b1a60f81b82828151811061206157612060612cdf565b5b60200101907effffffffffffffffffffffffffffffffffffffffffffffffffffffffffffff1916908160001a905350600485901c9450806120a190612bf6565b905061200b565b50600084146120ec576040517f08c379a00000000000000000000000000000000000000000000000000000000081526004016120e390612797565b60405180910390fd5b8091505092915050565b505050565b60008135905061210a816132ea565b92915050565b60008135905061211f81613301565b92915050565b60008135905061213481613318565b92915050565b6000813590506121498161332f565b92915050565b60006020828403121561216557612164612d3d565b5b6000612173848285016120fb565b91505092915050565b6000806040838503121561219357612192612d3d565b5b60006121a1858286016120fb565b92505060206121b2858286016120fb565b9150509250929050565b6000806000606084860312156121d5576121d4612d3d565b5b60006121e3868287016120fb565b93505060206121f4868287016120fb565b92505060406122058682870161213a565b9150509250925092565b6000806040838503121561222657612225612d3d565b5b6000612234858286016120fb565b92505060206122458582860161213a565b9150509250929050565b60006020828403121561226557612264612d3d565b5b600061227384828501612110565b91505092915050565b6000806040838503121561229357612292612d3d565b5b60006122a185828601612110565b92505060206122b2858286016120fb565b9150509250929050565b600080604083850312156122d3576122d2612d3d565b5b60006122e185828601612110565b92505060206122f28582860161213a565b9150509250929050565b60006020828403121561231257612311612d3d565b5b600061232084828501612125565b91505092915050565b60006020828403121561233f5761233e612d3d565b5b600061234d8482850161213a565b91505092915050565b61235f81612b38565b82525050565b61236e81612b4a565b82525050565b61237d81612b56565b82525050565b600061238e82612a2d565b6123988185612a38565b93506123a8818560208601612bc3565b6123b181612d42565b840191505092915050565b60006123c782612a2d565b6123d18185612a49565b93506123e1818560208601612bc3565b80840191505092915050565b60006123fa602083612a38565b915061240582612d53565b602082019050919050565b600061241d602383612a38565b915061242882612d7c565b604082019050919050565b6000612440601483612a38565b915061244b82612dcb565b602082019050919050565b6000612463602283612a38565b915061246e82612df4565b604082019050919050565b6000612486603983612a38565b915061249182612e43565b604082019050919050565b60006124a9602283612a38565b91506124b482612e92565b604082019050919050565b60006124cc602683612a38565b91506124d782612ee1565b604082019050919050565b60006124ef601083612a38565b91506124fa82612f30565b602082019050919050565b6000612512602883612a38565b915061251d82612f59565b604082019050919050565b6000612535603683612a38565b915061254082612fa8565b604082019050919050565b6000612558602483612a38565b915061256382612ff7565b604082019050919050565b600061257b602183612a38565b915061258682613046565b604082019050919050565b600061259e602583612a38565b91506125a982613095565b604082019050919050565b60006125c1602483612a38565b91506125cc826130e4565b604082019050919050565b60006125e4603783612a38565b91506125ef82613133565b604082019050919050565b6000612607601783612a49565b915061261282613182565b601782019050919050565b600061262a602583612a38565b9150612635826131ab565b604082019050919050565b600061264d601183612a49565b9150612658826131fa565b601182019050919050565b6000612670602f83612a38565b915061267b82613223565b604082019050919050565b6000612693601f83612a38565b915061269e82613272565b602082019050919050565b60006126b6602a83612a38565b91506126c18261329b565b604082019050919050565b6126d581612bac565b82525050565b6126e481612bb6565b82525050565b60006126f5826125fa565b915061270182856123bc565b915061270c82612640565b915061271882846123bc565b91508190509392505050565b60006020820190506127396000830184612356565b92915050565b60006020820190506127546000830184612365565b92915050565b600060208201905061276f6000830184612374565b92915050565b6000602082019050818103600083015261278f8184612383565b905092915050565b600060208201905081810360008301526127b0816123ed565b9050919050565b600060208201905081810360008301526127d081612410565b9050919050565b600060208201905081810360008301526127f081612433565b9050919050565b6000602082019050818103600083015261281081612456565b9050919050565b6000602082019050818103600083015261283081612479565b9050919050565b600060208201905081810360008301526128508161249c565b9050919050565b60006020820190508181036000830152612870816124bf565b9050919050565b60006020820190508181036000830152612890816124e2565b9050919050565b600060208201905081810360008301526128b081612505565b9050919050565b600060208201905081810360008301526128d081612528565b9050919050565b600060208201905081810360008301526128f08161254b565b9050919050565b600060208201905081810360008301526129108161256e565b9050919050565b6000602082019050818103600083015261293081612591565b9050919050565b60006020820190508181036000830152612950816125b4565b9050919050565b60006020820190508181036000830152612970816125d7565b9050919050565b600060208201905081810360008301526129908161261d565b9050919050565b600060208201905081810360008301526129b081612663565b9050919050565b600060208201905081810360008301526129d081612686565b9050919050565b600060208201905081810360008301526129f0816126a9565b9050919050565b6000602082019050612a0c60008301846126cc565b92915050565b6000602082019050612a2760008301846126db565b92915050565b600081519050919050565b600082825260208201905092915050565b600081905092915050565b6000612a5f82612bac565b9150612a6a83612bac565b9250827fffffffffffffffffffffffffffffffffffffffffffffffffffffffffffffffff03821115612a9f57612a9e612c52565b5b828201905092915050565b6000612ab582612bac565b9150612ac083612bac565b9250817fffffffffffffffffffffffffffffffffffffffffffffffffffffffffffffffff0483118215151615612af957612af8612c52565b5b828202905092915050565b6000612b0f82612bac565b9150612b1a83612bac565b925082821015612b2d57612b2c612c52565b5b828203905092915050565b6000612b4382612b8c565b9050919050565b60008115159050919050565b6000819050919050565b60007fffffffff0000000000000000000000000000000000000000000000000000000082169050919050565b600073ffffffffffffffffffffffffffffffffffffffff82169050919050565b6000819050919050565b600060ff82169050919050565b60005b83811015612be1578082015181840152602081019050612bc6565b83811115612bf0576000848401525b50505050565b6000612c0182612bac565b91506000821415612c1557612c14612c52565b5b600182039050919050565b60006002820490506001821680612c3857607f821691505b60208210811415612c4c57612c4b612c81565b5b50919050565b7f4e487b7100000000000000000000000000000000000000000000000000000000600052601160045260246000fd5b7f4e487b7100000000000000000000000000000000000000000000000000000000600052602260045260246000fd5b7f4e487b7100000000000000000000000000000000000000000000000000000000600052603160045260246000fd5b7f4e487b7100000000000000000000000000000000000000000000000000000000600052603260045260246000fd5b7f4e487b7100000000000000000000000000000000000000000000000000000000600052604160045260246000fd5b600080fd5b6000601f19601f8301169050919050565b7f537472696e67733a20686578206c656e67746820696e73756666696369656e74600082015250565b7f45524332303a207472616e7366657220746f20746865207a65726f206164647260008201527f6573730000000000000000000000000000000000000000000000000000000000602082015250565b7f5061757361626c653a206e6f7420706175736564000000000000000000000000600082015250565b7f45524332303a206275726e20616d6f756e7420657863656564732062616c616e60008201527f6365000000000000000000000000000000000000000000000000000000000000602082015250565b7f45524332305072657365744d696e7465725061757365723a206d75737420686160008201527f76652070617573657220726f6c6520746f20756e706175736500000000000000602082015250565b7f45524332303a20617070726f766520746f20746865207a65726f20616464726560008201527f7373000000000000000000000000000000000000000000000000000000000000602082015250565b7f45524332303a207472616e7366657220616d6f756e742065786365656473206260008201527f616c616e63650000000000000000000000000000000000000000000000000000602082015250565b7f5061757361626c653a2070617573656400000000000000000000000000000000600082015250565b7f45524332303a207472616e7366657220616d6f756e742065786365656473206160008201527f6c6c6f77616e6365000000000000000000000000000000000000000000000000602082015250565b7f45524332305072657365744d696e7465725061757365723a206d75737420686160008201527f7665206d696e74657220726f6c6520746f206d696e7400000000000000000000602082015250565b7f45524332303a206275726e20616d6f756e74206578636565647320616c6c6f7760008201527f616e636500000000000000000000000000000000000000000000000000000000602082015250565b7f45524332303a206275726e2066726f6d20746865207a65726f2061646472657360008201527f7300000000000000000000000000000000000000000000000000000000000000602082015250565b7f45524332303a207472616e736665722066726f6d20746865207a65726f20616460008201527f6472657373000000000000000000000000000000000000000000000000000000602082015250565b7f45524332303a20617070726f76652066726f6d20746865207a65726f2061646460008201527f7265737300000000000000000000000000000000000000000000000000000000602082015250565b7f45524332305072657365744d696e7465725061757365723a206d75737420686160008201527f76652070617573657220726f6c6520746f207061757365000000000000000000602082015250565b7f416363657373436f6e74726f6c3a206163636f756e7420000000000000000000600082015250565b7f45524332303a2064656372656173656420616c6c6f77616e63652062656c6f7760008201527f207a65726f000000000000000000000000000000000000000000000000000000602082015250565b7f206973206d697373696e6720726f6c6520000000000000000000000000000000600082015250565b7f416363657373436f6e74726f6c3a2063616e206f6e6c792072656e6f756e636560008201527f20726f6c657320666f722073656c660000000000000000000000000000000000602082015250565b7f45524332303a206d696e7420746f20746865207a65726f206164647265737300600082015250565b7f45524332305061757361626c653a20746f6b656e207472616e7366657220776860008201527f696c652070617573656400000000000000000000000000000000000000000000602082015250565b6132f381612b38565b81146132fe57600080fd5b50565b61330a81612b56565b811461331557600080fd5b50565b61332181612b60565b811461332c57600080fd5b50565b61333881612bac565b811461334357600080fd5b5056fea26469706673582212203dd465d3161f732ee795c3c149993a61adc91d93cb56b3694f169b9fcdb3036b64736f6c63430008060033",
  "immutableReferences": {},
  "source": "// contracts/Brlshopp.sol\n// SPDX-License-Identifier: MIT\npragma solidity ^0.8.6;\n\nimport \"@openzeppelin/contracts/token/ERC20/presets/ERC20PresetMinterPauser.sol\";\n\ncontract BRLShopp is ERC20PresetMinterPauser {\n  constructor() ERC20PresetMinterPauser(\"BRLShopp\", \"BRLSHOPP\") {\n  }\n\n  function decimals() public view virtual override returns (uint8) {\n    return 2;\n  }\n}\n\n",
  "sourcePath": "/home/neuromancer/contracts/contracts/BRLShopp.sol",
  "compiler": {
    "name": "solc",
    "version": "0.8.6+commit.11564f7e.Emscripten.clang"
  },
  "schemaVersion": "3.4.3",
  "updatedAt": "2021-08-20T22:23:01.126Z",
  "devdoc": {
    "kind": "dev",
    "methods": {
      "allowance(address,address)": {
        "details": "See {IERC20-allowance}."
      },
      "approve(address,uint256)": {
        "details": "See {IERC20-approve}. Requirements: - `spender` cannot be the zero address."
      },
      "balanceOf(address)": {
        "details": "See {IERC20-balanceOf}."
      },
      "burn(uint256)": {
        "details": "Destroys `amount` tokens from the caller. See {ERC20-_burn}."
      },
      "burnFrom(address,uint256)": {
        "details": "Destroys `amount` tokens from `account`, deducting from the caller's allowance. See {ERC20-_burn} and {ERC20-allowance}. Requirements: - the caller must have allowance for ``accounts``'s tokens of at least `amount`."
      },
      "decimals()": {
        "details": "Returns the number of decimals used to get its user representation. For example, if `decimals` equals `2`, a balance of `505` tokens should be displayed to a user as `5.05` (`505 / 10 ** 2`). Tokens usually opt for a value of 18, imitating the relationship between Ether and Wei. This is the value {ERC20} uses, unless this function is overridden; NOTE: This information is only used for _display_ purposes: it in no way affects any of the arithmetic of the contract, including {IERC20-balanceOf} and {IERC20-transfer}."
      },
      "decreaseAllowance(address,uint256)": {
        "details": "Atomically decreases the allowance granted to `spender` by the caller. This is an alternative to {approve} that can be used as a mitigation for problems described in {IERC20-approve}. Emits an {Approval} event indicating the updated allowance. Requirements: - `spender` cannot be the zero address. - `spender` must have allowance for the caller of at least `subtractedValue`."
      },
      "getRoleAdmin(bytes32)": {
        "details": "Returns the admin role that controls `role`. See {grantRole} and {revokeRole}. To change a role's admin, use {_setRoleAdmin}."
      },
      "getRoleMember(bytes32,uint256)": {
        "details": "Returns one of the accounts that have `role`. `index` must be a value between 0 and {getRoleMemberCount}, non-inclusive. Role bearers are not sorted in any particular way, and their ordering may change at any point. WARNING: When using {getRoleMember} and {getRoleMemberCount}, make sure you perform all queries on the same block. See the following https://forum.openzeppelin.com/t/iterating-over-elements-on-enumerableset-in-openzeppelin-contracts/2296[forum post] for more information."
      },
      "getRoleMemberCount(bytes32)": {
        "details": "Returns the number of accounts that have `role`. Can be used together with {getRoleMember} to enumerate all bearers of a role."
      },
      "grantRole(bytes32,address)": {
        "details": "Overload {grantRole} to track enumerable memberships"
      },
      "hasRole(bytes32,address)": {
        "details": "Returns `true` if `account` has been granted `role`."
      },
      "increaseAllowance(address,uint256)": {
        "details": "Atomically increases the allowance granted to `spender` by the caller. This is an alternative to {approve} that can be used as a mitigation for problems described in {IERC20-approve}. Emits an {Approval} event indicating the updated allowance. Requirements: - `spender` cannot be the zero address."
      },
      "mint(address,uint256)": {
        "details": "Creates `amount` new tokens for `to`. See {ERC20-_mint}. Requirements: - the caller must have the `MINTER_ROLE`."
      },
      "name()": {
        "details": "Returns the name of the token."
      },
      "pause()": {
        "details": "Pauses all token transfers. See {ERC20Pausable} and {Pausable-_pause}. Requirements: - the caller must have the `PAUSER_ROLE`."
      },
      "paused()": {
        "details": "Returns true if the contract is paused, and false otherwise."
      },
      "renounceRole(bytes32,address)": {
        "details": "Overload {renounceRole} to track enumerable memberships"
      },
      "revokeRole(bytes32,address)": {
        "details": "Overload {revokeRole} to track enumerable memberships"
      },
      "supportsInterface(bytes4)": {
        "details": "See {IERC165-supportsInterface}."
      },
      "symbol()": {
        "details": "Returns the symbol of the token, usually a shorter version of the name."
      },
      "totalSupply()": {
        "details": "See {IERC20-totalSupply}."
      },
      "transfer(address,uint256)": {
        "details": "See {IERC20-transfer}. Requirements: - `recipient` cannot be the zero address. - the caller must have a balance of at least `amount`."
      },
      "transferFrom(address,address,uint256)": {
        "details": "See {IERC20-transferFrom}. Emits an {Approval} event indicating the updated allowance. This is not required by the EIP. See the note at the beginning of {ERC20}. Requirements: - `sender` and `recipient` cannot be the zero address. - `sender` must have a balance of at least `amount`. - the caller must have allowance for ``sender``'s tokens of at least `amount`."
      },
      "unpause()": {
        "details": "Unpauses all token transfers. See {ERC20Pausable} and {Pausable-_unpause}. Requirements: - the caller must have the `PAUSER_ROLE`."
      }
    },
    "version": 1
  },
  "userdoc": {
    "kind": "user",
    "methods": {},
    "version": 1
  }
}